:1000000012C0189518951895189518951895189563
:100010001895189518951895189518951895189578
:100020001895189518958FE58DBFC0E4E8E34E2E1E
:1000300084E08EBFD4E0F4E05F2EEEEFF3E0A0E6C4
:10004000B0E0A89584B7082E877F84BF88E1992700
:1000500081BD91BD88278D933197E9F76624BD9ABC
:10006000C59A789484B7877F84BF8FE181BD87E08C
:1000700081BD81B5886181BD877F81BDB99ABA9AFA
:1000800081EA8FBD82E08EBD89B7846089BF789494
:1000900082E08EBDBB9A82E685BD89B7806489BF48
:1000A00082E685BD80E090E09BBD8ABD80E090E067
:1000B00099BD88BD80E083BDA198A498A39A81E0F2
:1000C00083BF89B7816089BF882783BFE0E0F0E004
:1000D000AAE0B1E09EE11CD481E08093620081E05F
:1000E0008093630081E08093640093D1A895ABEE88
:1000F000B0E0E6E5F9E01CD409F01EC00091620012
:10010000053008F006C0A2E6B0E08C918F5F8C93BA
:1001100003C081E0809362000091620043E3049F8A
:10012000A5E6B0E00C92A5E6B0E08C9199279BBDC6
:100130008ABD8CE291E04CD3ABEEB0E0E0E6F9E0B2
:10014000F7D309F020C000916200013010F009F0EF
:1001500001C006C08091620081508093620003C09C
:1001600085E0809362000091620043E3049FA5E66E
:10017000B0E00C92A5E6B0E08C9199279BBD8ABDBA
:100180008CE291E025D3ABEEB0E0EAE6F9E0D0D323
:1001900009F013C085E0809362000091620043E3A0
:1001A000049FA5E6B0E00C92A5E6B0E08C919927FB
:1001B0009BBD8ABD8CE291E00BD3ABEEB0E0E4E7EF
:1001C000F9E0B6D309F013C080E08093620000919B
:1001D000620043E3049FA5E6B0E00C92A5E6B0E020
:1001E0008C9199279BBD8ABD8CE291E0F1D2ABEE58
:1001F000B0E0EEE7F9E09CD309F01EC00091630087
:10020000053008F006C0A3E6B0E08C918F5F8C93B8
:1002100003C081E0809363000091630043E3049F87
:10022000A5E6B0E00C92A5E6B0E08C91992799BDC7
:1002300088BD8CE291E0CCD2ABEEB0E0E8E8F9E02A
:1002400077D309F020C000916300013010F009F06D
:1002500001C006C08091630081508093630003C099
:1002600085E0809363000091630043E3049FA5E66B
:10027000B0E00C92A5E6B0E08C91992799BD88BDBD
:100280008CE291E0A5D2ABEEB0E0E2E9F9E050D328
:1002900009F013C085E0809363000091630043E39D
:1002A000049FA5E6B0E00C92A5E6B0E08C919927FA
:1002B00099BD88BD8CE291E08BD2ABEEB0E0ECE969
:1002C000F9E036D309F013C080E080936300009119
:1002D000630043E3049FA5E6B0E00C92A5E6B0E01E
:1002E0008C91992799BD88BD8CE291E071D2ABEEDB
:1002F000B0E0E6EAF9E01CD309F01CC0009164000C
:10030000053008F006C0A4E6B0E08C918F5F8C93B6
:1003100003C081E0809364000091640043E3049F84
:10032000A5E6B0E00C92A5E6B0E08C9183BD8CE22E
:1003300091E04ED2ABEEB0E0E0EBF9E0F9D209F09B
:100340001EC000916400013010F009F001C006C029
:100350008091640081508093640003C085E08093A5
:1003600064000091640043E3049FA5E6B0E00C92B2
:10037000A5E6B0E08C9183BD8CE291E029D2ABEE92
:10038000B0E0EAEBF9E0D4D209F011C085E0809347
:1003900064000091640043E3049FA5E6B0E00C9282
:1003A000A5E6B0E08C9183BD8CE291E011D2ABEE7A
:1003B000B0E0E4ECF9E0BCD209F02AC080E0809320
:1003C00064000091640043E3049FA5E6B0E00C9252
:1003D000A5E6B0E08C9183BDA0E2B4E0E2E6F0E0F7
:1003E0002CD2EED1EEECF9E0DFD1A0E2B4E0E3E60E
:1003F000F0E023D2E5D1EEECF9E0D6D1A0E2B4E012
:10040000E4E6F0E01AD2DCD1D7D18CE291E0E0D181
:100410006CCEABEEB0E088278C93ACECB0E08827D4
:100420008C930027A3E3B0E08C9181FB0EF401E0F4
:1004300041E0041709F087C10027A3E3B0E08C91E5
:1004400081FB0EF401E040E0041709F0F5CF80E0F5
:1004500090E0A6E6B0E08D939C93A6E6B0E074D160
:10046000EF93FF93E6E0F0E07DD1FF91EF9100275D
:10047000A3E3B0E08C9181FB0EF401E041E00417AE
:1004800009F0EBCFA6E6B0E00D911C910E3056E0DE
:10049000150780E010F009F081E08F93A6E6B0E048
:1004A0000D911C910E3957E0150781E008F080E0AE
:1004B0009F918923882309F446C1ACECB0E08827DA
:1004C0008C9381E090E0A0E6B0E08D939C930027B0
:1004D000A3E3B0E08C9181FB0EF401E041E004174E
:1004E00009F02EC080E090E0A6E6B0E08D939C93EA
:1004F000A6E6B0E029D1EF93FF93E6E0F0E032D139
:10050000FF91EF910027A3E3B0E08C9181FB0EF403
:1005100001E040E0041709F0EBCFA6E6B0E08D91D2
:100520009C91A0E6B0E0AD90BC90A6E6B0E0AA0C2D
:10053000BB1CAA0DBB1D8D939C93A0E6B0E004D11B
:10054000A895A0E6B0E00D911C91083150E0150788
:1005500010F009F001C0BBCF81E090E0A0E6B0E070
:100560008D939C93A0E6B0E00D911C91083150E072
:10057000150710F009F08EC0A0E6B0E0AD90BC9079
:10058000A6E6B0E0AA0CBB1CAA0DBB1D0D911C91E8
:100590000E3150E0150780E010F009F081E08F93F4
:1005A000A0E6B0E0AD90BC90A6E6B0E0AA0CBB1C03
:1005B000AA0DBB1D0D911C91053550E0150781E07A
:1005C00008F080E09F918923882309F415C080E01A
:1005D00090E0A0E6B0E0AD90BC90A6E6B0E0AA0C3A
:1005E000BB1CAA0DBB1D8D939C93ACECB0E0B3D0AB
:1005F000E2EDF9E0FCD049C0A0E6B0E0AD90BC90DF
:10060000A6E6B0E0AA0CBB1CAA0DBB1D0D911C9167
:10061000023850E0150780E010F009F081E08F9378
:10062000A0E6B0E0AD90BC90A6E6B0E0AA0CBB1C82
:10063000AA0DBB1D0D911C91083C50E0150781E0EF
:1006400008F080E09F918923882309F415C081E098
:1006500090E0A0E6B0E0AD90BC90A6E6B0E0AA0CB9
:10066000BB1CAA0DBB1D8D939C93ACECB0E073D06A
:10067000E4EDF9E0BCD009C0ACECB0E088278C9385
:10068000ABEEB0E088278C930895A0E6B0E05CD094
:1006900008F468CFACECB0E045D1EA2FFB2F3997D6
:1006A000F0400FEFABEEB0E01AD1ECECF0E008E078
:1006B000ACECB0E014D1ECECF0E0AAE0B1E03AD15F
:1006C00009F001C004C0ABEEB0E088278C9300278E
:1006D000A3E3B0E08C9184FB0EF401E041E0041749
:1006E00009F031C0ECECF0E0AAE0B1E0F3D0E0E0DA
:1006F000F0E0ACECB0E07BE700D18AE090E068D0BD
:10070000E6EDF9E051D058D0ECEDF9E04DD0ACEC8D
:10071000B0E058D0E0EEF9E047D0ABEEB0E052D018
:100720004BD0A8958AE090E053D00027A3E3B0E037
:100730008C9184FB0EF401E040E0041709F0F1CF46
:1007400084E690E045D00895ED91FC91EF5FFF4F76
:10075000FC93EE9308958F938D918823E9F7119779
:100760008F9108953197F1F70895689462F808958C
:10077000E89462F808958F939F9383E690E0019741
:10078000F1F79F918F91089580952AE090E0089469
:1007900010F4C59802C0C59A0000EDDFECDF969515
:1007A00087952A95A9F70895C895802D882319F073
:1007B000EBDF3196F9CF08958DE0E6DF8AE0E4CFF4
:1007C000A0E2B4E08D91882311F0DEDFFBCF089525
:1007D000EF93FF93EE27E82BE92B31F0E0EDF7E004
:1007E0003197F1F70197D1F7FF91EF91089504D078
:1007F0000D920020E1F70895C895319600200895E4
:10080000000F111F221F331F08950095109520958A
:1008100030950F5F1F4F2F4F3F4F0895019110816B
:100820000EC001911191219130810BC00191108175
:1008300017FF05C03FEF2FEF04C0008111272227CB
:10084000332737FF03C0E1DF8DE28D93CF93DF9332
:10085000CF92DF92EF92AA24BB24CC24DD24EE2495
:1008600040E2CAE0DD2755E093E38881890F87FDE8
:100870009F7083FD907F891B89935A95A9F7C0DFEC
:10088000AA1CBB1CCC1CDD1CEE1C4A9551F7E8943D
:10089000EFE0FF2782910ED0EB30E0F71EF0689476
:1008A0008A2D0CD088278D93EF90DF90CF90DF9129
:1008B000CF910895982F829501D0892F8F70805DF8
:1008C00026F0803309F4089568948D93089588275D
:1008D0008D93089581918D938823E1F708958191F7
:1008E0008D930A9519F08823D1F70895F0CFE199F7
:1008F000FECFEEBBFFBB31960895F9DF8D917B37BC
:1009000029F48DBBE29AE19A8823B9F777270895F5
:10091000EEDFE09A8DB38D93882319F09A95C1F795
:100920009D9308958FEF83959D919923E1F7089505
:10093000689401C0E894AF93BF938D9116F09191A4
:1009400002C05ADF902D891718F011F48823A9F7F7
:10095000BF91AF91089530303030303031310000E8
:1009600030303030313130300000303030303131E3
:100970003131000030303131303030300000303033
:1009800031313030313100003030313131313030BF
:10099000000030303131313131310000313130300F
:1009A0003030303000003131303030303131000003
:1009B000313130303131303000003131303031318F
:1009C0003131000031313131303030300000202001
:1009D00000003000310053617665640049443D00F9
:0809E0002020446174613D0018
:00000001FF
