:1000000012C0189518951895189518951895189563
:100010001895189518951895189518951895189578
:100020001895189518958FE58DBFC0E4E8E34E2E1E
:1000300084E08EBFD4E0F4E05F2EEEEFF3E0A0E6C4
:10004000B0E0A89584B7082E877F84BF88E1992700
:1000500081BD91BD88278D933197E9F76624BD9ABC
:10006000C59A789484B7877F84BF8FE181BD87E08C
:1000700081BD81B5886181BD877F81BDB99ABA9AFA
:1000800081EA8FBD82E08EBD89B7846089BF789494
:1000900082E08EBDBB9A82E685BD89B7806489BF48
:1000A00082E685BD80E090E09BBD8ABD80E090E067
:1000B00099BD88BD80E083BD8F988C988A9A899A73
:1000C0008B9881E083BF89B7816089BF882783BF10
:1000D000E0E0F0E0ADE0B1E09EE128D03197F1F74B
:1000E0000895689462F80895E89462F808958F93EB
:1000F0009F938AE090E00197F1F79F918F91089587
:1001000080952AE090E0089410F4C59802C0C59A42
:100110000000EDDFECDF969587952A95A9F7089505
:10012000E199FECFEEBBFFBB31960895F9DFE09A6F
:100130008DB38D93882319F09A95C1F79D930895F7
:00000001FF
