:1000000012C0189518951895189518951895189563
:100010001895189518951895189518951895189578
:100020001895189518958FE58DBFC0E4E8E34E2E1E
:1000300084E08EBFD4E0F4E05F2EEEEFF3E0A0E6C4
:10004000B0E0A89584B7082E877F84BF88E1992700
:1000500081BD91BD88278D933197E9F76624BD9ABC
:10006000C59A789484B7877F84BF8FE181BD87E08C
:1000700081BD81B5886181BD877F81BDB99ABA9AFA
:1000800081EA8FBD82E08EBD89B7846089BF789494
:1000900082E08EBDBB9A82E685BD89B7806489BF48
:1000A00082E685BD80E090E09BBD8ABD80E090E067
:1000B00099BD88BD80E083BD8F988C988A9A899A73
:1000C0008B9881E083BF89B7816089BF882783BF10
:1000D0000027A0E3B0E08C9184FB0EF401E041E046
:1000E000041709F046C0919A929AE0E0F0E001E02E
:1000F00010E0A0E1BB277BE7B9D184E690E02FD1E7
:10010000E2E0F0E001E010E0A0E1BB277BE7AED148
:1001100084E690E024D1E4E0F0E001E010E0A0E12A
:10012000BB277BE7A3D184E690E019D1E6E0F0E0BD
:10013000A0E1BB2781E08C937BE796D184E690E039
:100140000ED1E7E0F0E0A0E1BB2781E08C937BE7F4
:100150008BD184E690E003D1E8E0F0E0A0E1BB279A
:1001600081E08C937BE780D184E690E0F8D0919891
:100170009298E0E0F0E0ABE0B1E089D1E2E0F0E0BD
:10018000ADE0B1E084D1E4E0F0E0AFE0B1E07FD1F8
:10019000E6E0F0E0A1E1B1E078D1E7E0F0E0A2E153
:1001A000B1E073D1E8E0F0E0A3E1B1E06ED1E9E0C5
:1001B000F0E0A4E1B1E09EE172D1E2EBF4E0BBD06B
:1001C000A4E1B1E0C6D0BFD0E0ECF4E0B4D0A0E24E
:1001D000B4E0EBE0F1E0E9D0BAD0E8ECF4E0ABD089
:1001E000A0E2B4E0E1E1F1E0EFD0B1D0ACD0E0ECDE
:1001F000F4E0A1D0A0E2B4E0EDE0F1E0D6D0A7D0E9
:10020000E8ECF4E098D0A0E2B4E0E2E1F1E0DCD088
:100210009ED099D0E0ECF4E08ED0A0E2B4E0EFE024
:10022000F1E0C3D094D0E8ECF4E085D0A0E2B4E0F3
:10023000E3E1F1E0C9D08BD086D00091110101300B
:1002400009F006C0ABE0B1E08D919C919BBD8ABDE9
:1002500000911201013009F006C0ADE0B1E08D91CE
:100260009C9199BD88BD00911301013009F004C033
:10027000AFE0B1E08C9183BD929AA89507B1007F61
:10028000016007B97BD0A5E6B0E08D939C93A5E60D
:10029000B0E00D911C91023C51E0150708F028C018
:1002A0009298E2EDF4E047D04ED084EF91E057D041
:1002B000A89584E690E053D007B1007F016007B9AC
:1002C0005DD0A5E6B0E08D939C9382B392E0892740
:1002D00082BB82B394E0892782BBA5E6B0E00D9192
:1002E0001C91043F51E0150710F009F001C0E0CF68
:1002F000C4CF3197F1F70895689462F80895E894AF
:1003000062F808958F939F938AE090E00197F1F748
:100310009F918F91089580952AE090E0089410F4C1
:10032000C59802C0C59A0000EDDFECDF9695879571
:100330002A95A9F70895C895802D882319F0EBDF39
:100340003196F9CF08958DE0E6DF8AE0E4CFA0E2B0
:10035000B4E08D91882311F0DEDFFBCF0895EF9399
:10036000FF93EE27E82BE92B31F0E2E2F1E0319741
:10037000F1F70197D1F7FF91EF910895369A3699E9
:10038000FECF369A3699FECF84B195B10895000F0D
:10039000111F221F331F0895009510952095309549
:1003A0000F5F1F4F2F4F3F4F0895019110810EC0D7
:1003B00001911191219130810BC00191108117FFA2
:1003C00005C03FEF2FEF04C00081112722273327FC
:1003D00037FF03C0E1DF8DE28D93CF93DF93CF92A0
:1003E000DF92EF92AA24BB24CC24DD24EE2440E249
:1003F000CAE0DD2755E093E38881890F87FD9F7070
:1004000083FD907F891B89935A95A9F7C0DFAA1CA9
:10041000BB1CCC1CDD1CEE1C4A9551F7E894EFE0A8
:10042000FF2782910ED0EB30E0F71EF068948A2D02
:100430000CD088278D93EF90DF90CF90DF91CF91F4
:100440000895982F829501D0892F8F70805D26F0B6
:10045000803309F4089568948D930895E199FECF4F
:10046000EEBBFFBB3196089591E001C092E07B376F
:1004700051F47FB7F894F2DF8D918DBBE29AE19A47
:100480009A95C9F77FBF7727089591E001C092E060
:10049000E5DFE09A8DB38D939A95D1F70895DEDF6D
:1004A000E09A8DB38D93882319F09A95C1F79D93A7
:1004B000089553617665204944206973203A00000D
:1004C000522050574D3D2000202020466C61673D52
:0C04D000000053617665204461746100F7
:00000001FF
