:1000000012C0189518951895189518951895189563
:100010001895189518951895189518951895189578
:100020001895189518958FE58DBFC0E4E8E34E2E1E
:1000300084E08EBFD4E0F4E05F2EEEEFF3E0A0E6C4
:10004000B0E0A89584B7082E877F84BF88E1992700
:1000500081BD91BD88278D933197E9F76624BD9ABC
:10006000C59A789484B7877F84BF8FE181BD87E08C
:1000700081BD81B5886181BD877F81BDA198A4982C
:10008000A39A81E083BF89B7816089BF882783BF36
:100090000027A3E3B0E08C9184FB0EF401E041E083
:1000A000041709F036C036D0E2E2F4E03FD146D181
:1000B00081E090E0A2E8B3E08D939C93A2E8B3E0E6
:1000C0000D911C910C3251E0150710F009F01DC084
:1000D000A0E2B4E0E2E8F3E04BD134D1E2E3F4E0B3
:1000E00025D1A0E2B4E0E2E8F3E0A190B080EEE533
:1000F000F0E0AA0CBB1CEA0DFB1D3AD123D11ED1A6
:10010000A2E8B3E0EAD008F4D9CFE2E2F4E00ED1FD
:1001100015D1BECF81E090E0A2E8B3E08D939C932F
:10012000A2E8B3E00D911C910C3251E0150710F0DC
:1001300009F060C080E090E0A0E8B3E08D939C936C
:10014000A895A0E8B3E0C9D0EF93FF93E6E0F0E014
:10015000CBD0FF91EF910027A3E3B0E08C9181FB1E
:100160000EF401E041E0041709F0EACFA0E8B3E0A3
:100170008D919C91A2E8B3E0AD90BC90AEE5B0E06B
:10018000AA0CBB1CAA0DBB1D8D939C93A2E8B3E0E7
:10019000A4D080E090E0A0E8B3E08D939C93A89574
:1001A000A0E8B3E09AD0EF93FF93E6E0F0E09CD0B4
:1001B000FF91EF910027A3E3B0E08C9181FB0EF457
:1001C00001E040E0041709F0EACFA0E8B3E08D9128
:1001D0009C91A2E8B3E0AD90BC90AEE5B0E0AA0C73
:1001E000BB1CAA0DBB1D8D939C93A2E8B3E075D0F8
:1001F00008F496CF0895E4E3F4E098D09FD081E02E
:1002000090E0A2E8B3E08D939C93A2E8B3E00D9157
:100210001C91003951E0150710F009F05EC080E034
:1002200090E0A0E8B3E08D939C93A0E8B3E055D0B4
:10023000EF93FF93E6E0F0E057D0FF91EF910027B6
:10024000A3E3B0E08C9181FB0EF401E041E00417E0
:1002500009F0EBCFA0E8B3E08D919C91A2E8B3E068
:10026000AD90BC90AEE5B0E0AA0CBB1CAA0DBB1DC6
:100270008D939C93A2E8B3E030D080E090E0A0E8BA
:10028000B3E08D939C93A0E8B3E027D0EF93FF9366
:10029000E6E0F0E029D0FF91EF910027A3E3B0E082
:1002A0008C9181FB0EF401E040E0041709F0EBCFE4
:1002B000A0E8B3E08D919C91A2E8B3E0AD90BC9032
:1002C000AEE5B0E0AA0CBB1CAA0DBB1D8D939C93A0
:1002D000A2E8B3E002D008F498CFED91FC91EF5F73
:1002E000FF4FFC93EE9308953197F1F708956894CA
:1002F00062F80895E89462F808958F939F9383E6D7
:1003000090E00197F1F79F918F91089580952AE0F1
:1003100090E0089410F4C59802C0C59A0000EDDF83
:10032000ECDF969587952A95A9F70895C895802DB5
:10033000882319F0EBDF3196F9CF08958DE0E6DFE1
:100340008AE0E4CFA0E2B4E08D91882311F0DEDFF3
:10035000FBCF0895000F111F221F331F0895009532
:100360001095209530950F5F1F4F2F4F3F4F0895E9
:10037000019110810EC001911191219130810BC02A
:100380000191108117FF05C03FEF2FEF04C00081DE
:1003900011272227332737FF03C0E1DF8DE28D933A
:1003A000CF93DF93CF92DF92EF92AA24BB24CC2489
:1003B000DD24EE2440E2CAE0DD2755E093E38881A6
:1003C000890F87FD9F7083FD907F891B89935A95C4
:1003D000A9F7C0DFAA1CBB1CCC1CDD1CEE1C4A9577
:1003E00051F7E894EFE0FF2782910ED0EB30E0F771
:1003F0001EF068948A2D0CD088278D93EF90DF90A3
:10040000CF90DF91CF910895982F829501D0892FB9
:100410008F70805D26F0803309F4089568948D9381
:1004200008952A2A2A2A2A2A2A2A2A2A2A2A2A2AE3
:0C04300000002900536174617274200008
:00000001FF
