:1000000012C0189518951895189518951895189563
:100010001895189518951895189518951895189578
:100020001895189518958FE58DBFC0E4E8E34E2E1E
:1000300084E08EBFD4E0F4E05F2EEEEFF3E0A0E6C4
:10004000B0E0A89584B7082E877F84BF88E1992700
:1000500081BD91BD88278D933197E9F76624BD9ABC
:10006000C59A789484B7877F84BF8FE181BD87E08C
:1000700081BD81B5886181BD877F81BDB99ABA9AFA
:1000800081E38FBD82E08EBD89B7846089BF78949B
:1000900082E08EBDBB9A82E785BD89B7806489BF47
:1000A00082E785BDA198A498A39A81E083BF89B710
:1000B000816089BF882783BFE0E0F0E0A6E0B1E07F
:1000C0009EE1FCD102D0A895FDCF0027A3E3B0E0CC
:1000D0008C9181FB0EF401E041E0041709F070C13E
:1000E0000027A3E3B0E08C9181FB0EF401E040E037
:1000F000041709F0F5CF80E090E0A2E6B0E08D9320
:100100009C93A2E6B0E05DD1EF93FF93E6E0F0E0D0
:1001100066D1FF91EF910027A3E3B0E08C9181FBC2
:100120000EF401E041E0041709F0EBCFA2E6B0E0E5
:100130000D911C910E3056E0150780E010F009F08B
:1001400081E08F93A2E6B0E00D911C910E3957E04B
:10015000150781E008F080E09F918923882309F446
:100160002FC1A8ECB0E088278C9381E090E0A0E656
:10017000B0E08D939C930027A3E3B0E08C9181FBCA
:100180000EF401E041E0041709F02EC080E090E099
:10019000A2E6B0E08D939C93A2E6B0E012D1EF937B
:1001A000FF93E6E0F0E01BD1FF91EF910027A3E37E
:1001B000B0E08C9181FB0EF401E040E0041709F0FF
:1001C000EBCFA2E6B0E08D919C91A0E6B0E0AD90BF
:1001D000BC90A2E6B0E0AA0CBB1CAA0DBB1D8D937F
:1001E0009C93A0E6B0E0EDD0A895A0E6B0E00D911C
:1001F0001C91083150E0150710F009F001C0BBCF89
:1002000081E090E0A0E6B0E08D939C93A0E6B0E0A2
:100210000D911C91083150E0150710F009F08EC0C7
:10022000A0E6B0E0AD90BC90A2E6B0E0AA0CBB1C8A
:10023000AA0DBB1D0D911C910E3150E0150780E0F9
:1002400010F009F081E08F93A0E6B0E0AD90BC9093
:10025000A2E6B0E0AA0CBB1CAA0DBB1D0D911C911F
:10026000053550E0150781E008F080E09F91892373
:10027000882309F415C080E090E0A0E6B0E0AD90DE
:10028000BC90A2E6B0E0AA0CBB1CAA0DBB1D8D93CE
:100290009C93A8ECB0E09CD0E2E0F5E0E5D049C04A
:1002A000A0E6B0E0AD90BC90A2E6B0E0AA0CBB1C0A
:1002B000AA0DBB1D0D911C91023850E0150780E07E
:1002C00010F009F081E08F93A0E6B0E0AD90BC9013
:1002D000A2E6B0E0AA0CBB1CAA0DBB1D0D911C919F
:1002E000083C50E0150781E008F080E09F918923E9
:1002F000882309F415C081E090E0A0E6B0E0AD905D
:10030000BC90A2E6B0E0AA0CBB1CAA0DBB1D8D934D
:100310009C93A8ECB0E05CD0E4E0F5E0A5D009C087
:10032000A8ECB0E088278C93A7EEB0E088278C93E8
:100330000895A0E6B0E045D008F468CFA8ECB0E09E
:10034000C7D0EA2FFB2F3997F0400FEFA7EEB0E0B0
:100350009CD0E8ECF0E008E0A8ECB0E096D0E8EC47
:10036000F0E0A6E0B1E0BCD009F008C0E6E0F5E0BE
:1003700058D0A7EEB0E063D05CD004C0A7EEB0E0E8
:1003800088278C930027A3E3B0E08C9184FB0EF4C4
:1003900001E041E0041709F013C0E0E0F0E0A8EC50
:1003A000B0E07BE780D0E8ECF0E0A6E0B1E068D018
:1003B000ECE0F5E036D03DD084EF91E046D0A89552
:1003C0000895ED91FC91EF5FFF4FFC93EE9308953C
:1003D0008F938D918823E9F711978F910895319725
:1003E000F1F70895689462F80895E89462F8089522
:1003F0008F939F9383E690E00197F1F79F918F9100
:10040000089580952AE090E0089410F4C59802C001
:10041000C59A0000EDDFECDF969587952A95A9F740
:100420000895C895802D882319F0EBDF3196F9CF18
:1004300008958DE0E6DF8AE0E4CFA0E2B4E08D919C
:10044000882311F0DEDFFBCF0895EF93FF93EE27B3
:10045000E82BE92B31F0E0EDF7E03197F1F7019768
:10046000D1F7FF91EF91089504D00D920020E1F7AC
:100470000895C89531960020089588278D93089592
:1004800081918D938823E1F7089581918D930A9549
:1004900019F08823D1F70895F0CFE199FECFEEBB94
:1004A000FFBB31960895F9DF8D917B3729F48DBB21
:1004B000E29AE19A8823B9F777270895EEDFE09A68
:1004C0008DB38D93882319F09A95C1F79D93089564
:1004D0008FEF83959D919923E1F70895689401C06A
:1004E000E894AF93BF938D9116F0919102C0C1DF54
:1004F000902D891718F011F48823A9F7BF91AF91B7
:10050000089530003100446174613D0053617665A7
:02051000640085
:00000001FF
