:1000000012C0189518951895189518951895189563
:100010001895189518951895189518951895189578
:100020001895189518958FE58DBFC0E4E8E34E2E1E
:1000300084E08EBFD4E0F4E05F2EEEEFF3E0A0E6C4
:10004000B0E0A89584B7082E877F84BF88E1992700
:1000500081BD91BD88278D933197E9F76624BD9ABC
:10006000C59A789484B7877F84BF8FE181BD87E08C
:1000700081BD81B5886181BD877F81BD86E886B9F4
:1000800080E487B9379AB99ABA9A81EA8FBD82E03B
:100090008EBD89B7846089BF789482E08EBDBB9A9B
:1000A00082E685BD89B7806489BF82E685BD80E030
:1000B00090E09BBD8ABD80E090E099BD88BD80E066
:1000C00083BD8F988C988A9A899A8B988B9881E0B7
:1000D00083BF89B7816089BF882783BF0027A0E3DA
:1000E000B0E08C9184FB0EF401E041E0041709F0CC
:1000F0005EC0919A929AE0E0F0E003E310E0A0E1A4
:10010000BB277BE712D584E690E06FD4E2E0F0E015
:1001100003E310E0A0E1BB277BE707D584E690E08E
:1001200064D4E4E0F0E003E310E0A0E1BB277BE768
:10013000FCD484E690E059D4E6E0F0E0A0E1BB27EF
:1001400081E08C937BE7EFD484E690E04ED4E7E047
:10015000F0E0A0E1BB2781E08C937BE7E4D484E668
:1001600090E043D4E8E0F0E0A0E1BB2781E08C938D
:100170007BE7D9D484E690E038D4929AA89584E6B7
:1001800090E033D482B392E0892782BB82B394E0BB
:10019000892782BB0027A0E3B0E08C9184FB0EF49A
:1001A00001E040E0041709F0E9CF91989298E0E06F
:1001B000F0E0ABE0B1E0D5D4E2E0F0E0ADE0B1E0FA
:1001C000D0D4E4E0F0E0AFE0B1E0CBD4E6E0F0E0A2
:1001D000A1E1B1E0C4D4E7E0F0E0A2E1B1E0BFD436
:1001E000E8E0F0E0A3E1B1E0BAD4E9E0F0E0A4E1B6
:1001F000B1E09EE1BED484EF91E0F7D3E8EBFBE001
:10020000E0D3A4E1B1E0EBD3E4D3E6ECFBE0D9D357
:10021000A0E2B4E0EBE0F1E017D4DFD3EEECFBE0DA
:10022000D0D3A0E2B4E0E1E1F1E01DD4D6D3D1D344
:10023000E6ECFBE0C6D3A0E2B4E0EDE0F1E004D4EC
:10024000CCD3EEECFBE0BDD3A0E2B4E0E2E1F1E020
:100250000AD4C3D3BED3E6ECFBE0B3D3A0E2B4E050
:10026000EFE0F1E0F1D3B9D3EEECFBE0AAD3A0E2EA
:10027000B4E0E3E1F1E0F7D3B0D3ABD300911101E7
:10028000013009F006C0ABE0B1E08D919C919BBDBF
:100290008ABD00911201013009F006C0ADE0B1E065
:1002A0008D919C9199BD88BD00911301013009F099
:1002B00004C0AFE0B1E08C9183BD929A9198B5D122
:1002C000A89500916400013009F02DC1ACEEB0E0BA
:1002D000E8EDFBE05ED409F003C081E080931101FA
:1002E000ACEEB0E0E2EEFBE054D409F003C080E0F5
:1002F00080931101ACEEB0E0ECEEFBE04AD481E07B
:1003000009F080E08F93ABE0B1E00D911C910C3CC3
:1003100050E0150781E010F009F080E09F918923FB
:10032000882309F40CC0ABE0B1E00D911C9143E3CC
:1003300050E0040F151FABE0B1E00D931C93ACEE41
:10034000B0E0E6EFFBE025D481E009F080E08F9398
:10035000ABE0B1E00D911C91063650E0150781E04D
:1003600008F480E09F918923882309F40CC0ABE056
:10037000B1E00D911C9143E350E0041B150BABE081
:10038000B1E00D931C93ACEEB0E0E0E0FCE001D4F2
:1003900009F003C081E080931201ACEEB0E0EAE026
:1003A000FCE0F7D309F003C080E080931201ACEECB
:1003B000B0E0E4E1FCE0EDD381E009F080E08F9370
:1003C000ADE0B1E00D911C910C3C50E0150781E0CF
:1003D00010F009F080E09F918923882309F40CC074
:1003E000ADE0B1E00D911C9143E350E0040F151F07
:1003F000ADE0B1E00D931C93ACEEB0E0EEE1FCE0BB
:10040000C8D381E009F080E08F93ADE0B1E00D91B9
:100410001C91063650E0150781E008F480E09F91BA
:100420008923882309F40CC0ADE0B1E00D911C9143
:1004300043E350E0041B150BADE0B1E00D931C93BA
:10044000ACEEB0E0E8E2FCE0A4D309F003C081E048
:1004500080931301ACEEB0E0E2E3FCE09AD309F044
:1004600003C080E080931301ACEEB0E0ECE3FCE06D
:1004700090D381E009F080E08F93AFE0B1E00D917F
:100480001C910C3C50E0150781E010F009F080E071
:100490009F918923882309F40CC0AFE0B1E00D914E
:1004A0001C9143E350E0040F151FAFE0B1E00D9342
:1004B0001C93ACEEB0E0E6E4FCE06BD381E009F025
:1004C00080E08F93AFE0B1E00D911C91063650E0D3
:1004D000150781E008F480E09F918923882309F4BF
:1004E0000CC0AFE0B1E00D911C9143E350E0041B60
:1004F000150BAFE0B1E00D931C93ABE0B1E08D9133
:100500009C919BBD8ABDADE0B1E08D919C9199BD60
:1005100088BDAFE0B1E08C9183BD80E08093640042
:100520008CE291E062D207B1007F016007B971D21D
:10053000A5E6B0E08D939C93A5E6B0E00D911C91EB
:10054000023C51E0150708F06FC0A0E2B4E0E5E618
:10055000F0E07AD242D23DD2929880E090E09BBD0A
:100560008ABD80E083BD80E090E099BD88BDE0E079
:10057000F0E0ABE0B1E07BE7D8D28AE090E035D2A2
:10058000E2E0F0E0ADE0B1E07BE7CFD28AE090E0DE
:100590002CD2E4E0F0E0AFE0B1E07BE7C6D28AE045
:1005A00090E023D2E6E0F0E0A1E1B1E07BE7BBD24E
:1005B0008AE090E01AD2E7E0F0E0A2E1B1E07BE768
:1005C000B2D28AE090E011D2E8E0F0E0A3E1B1E03D
:1005D0007BE7A9D28AE090E008D2E0E5FCE0F1D127
:1005E000F8D1929A9198A89584E690E0FED107B14F
:1005F000007F016007B90DD2A5E6B0E08D939C9312
:1006000082B392E0892782BB82B394E0892782BBC0
:10061000A5E6B0E00D911C91043F51E0150710F0E4
:1006200009F001C0E0CF91984ACEACEEB0E0882747
:100630008C93ADECB0E088278C930027A0E3B0E06A
:100640008C9187FB0EF401E041E0041709F088C1AA
:100650000027A0E3B0E08C9187FB0EF401E040E0BE
:10066000041709F0F5CF80E090E0A7E6B0E08D93A5
:100670009C93A7E6B0E075D1EF93FF93EAE0F0E03A
:100680007ED1FF91EF910027A0E3B0E08C9187FB32
:100690000EF401E041E0041709F0EBCFA7E6B0E06B
:1006A0000D911C910E3056E0150780E010F009F016
:1006B00081E08F93A7E6B0E00D911C91043358E0E0
:1006C000150781E008F080E09F918923882309F4D1
:1006D00046C1919AADECB0E088278C9381E090E020
:1006E000A0E6B0E08D939C930027A0E3B0E08C914E
:1006F00087FB0EF401E041E0041709F02EC080E012
:1007000090E0A7E6B0E08D939C93A7E6B0E029D1F6
:10071000EF93FF93EAE0F0E032D1FF91EF910027F1
:10072000A0E3B0E08C9187FB0EF401E040E00417F9
:1007300009F0EBCFA7E6B0E08D919C91A0E6B0E088
:10074000AD90BC90A7E6B0E0AA0CBB1CAA0DBB1DE7
:100750008D939C93A0E6B0E004D1A895A0E6B0E00C
:100760000D911C91083150E0150710F009F001C0FF
:10077000BBCF81E090E0A0E6B0E08D939C93A0E633
:10078000B0E00D911C91083150E0150710F009F010
:100790008EC0A0E6B0E0AD90BC90A7E6B0E0AA0C99
:1007A000BB1CAA0DBB1D0D911C910D3250E015070D
:1007B00080E010F009F081E08F93A0E6B0E0AD900A
:1007C000BC90A7E6B0E0AA0CBB1CAA0DBB1D0D9106
:1007D0001C910F3550E0150781E008F080E09F91F3
:1007E0008923882309F415C080E090E0A0E6B0E0FA
:1007F000AD90BC90A7E6B0E0AA0CBB1CAA0DBB1D37
:100800008D939C93ADECB0E0B3D0EAE5FCE0FCD076
:1008100049C0A0E6B0E0AD90BC90A7E6B0E0AA0C5D
:10082000BB1CAA0DBB1D0D911C910C3850E0150787
:1008300080E010F009F081E08F93A0E6B0E0AD9089
:10084000BC90A7E6B0E0AA0CBB1CAA0DBB1D0D9185
:100850001C910C3D50E0150781E008F080E09F916D
:100860008923882309F415C081E090E0A0E6B0E078
:10087000AD90BC90A7E6B0E0AA0CBB1CAA0DBB1DB6
:100880008D939C93ADECB0E073D0ECE5FCE0BCD074
:1008900009C0ADECB0E088278C93ACEEB0E08827BF
:1008A0008C930895A0E6B0E05CD008F468CFADEC7E
:1008B000B0E069D1EA2FFB2F3997F0400FEFACEE93
:1008C000B0E023D1EDECF0E008E0ADECB0E01DD1FC
:1008D0000027A0E3B0E08C9184FB0EF401E041E03E
:1008E000041709F032C0EDECF0E0A4E1B1E008D16A
:1008F000E9E0F0E0ADECB0E07BE726D18AE090E003
:1009000074D0EEE5FCE05DD064D0E4E6FCE059D0C4
:10091000ADECB0E064D0E8E6FCE053D0ACEEB0E083
:100920005ED057D0919A84E690E05FD0A8958AE097
:1009300090E05BD00027A0E3B0E08C9184FB0EF444
:1009400001E040E0041709F0F1CFEDECF0E0A4E1A4
:10095000B1E021D109F003C081E080936400919857
:100960000895ED91FC91EF5FFF4FFC93EE93089596
:100970008F938D918823E9F711978F91089531977F
:10098000F1F70895689462F80895E89462F808957C
:100990008F939F938BE890E00197F1F79F918F9150
:1009A000089580952AE090E0089410F4C59802C05C
:1009B000C59A0000EDDFECDF969587952A95A9F79B
:1009C0000895C895802D882319F0EBDF3196F9CF73
:1009D00008958DE0E6DF8AE0E4CFA0E2B4E08D91F7
:1009E000882311F0DEDFFBCF0895EF93FF93EE270E
:1009F000E82BE92B31F0EDECFAE03197F1F70197B4
:100A0000D1F7FF91EF9108950DD00D920020E1F7FD
:100A10000895369A3699FECF369A3699FECF84B12C
:100A200095B10895C895319600200895000F111FC3
:100A3000221F331F089500951095209530950F5F64
:100A40001F4F2F4F3F4F0895019110810EC001910C
:100A50001191219130810BC00191108117FF05C0C8
:100A60003FEF2FEF04C0008111272227332737FFE4
:100A700003C0E1DF8DE28D93CF93DF93CF92DF92BE
:100A8000EF92AA24BB24CC24DD24EE2440E2CAE069
:100A9000DD2755E093E38881890F87FD9F7083FDF3
:100AA000907F891B89935A95A9F7C0DFAA1CBB1CAC
:100AB000CC1CDD1CEE1C4A9551F7E894EFE0FF27B3
:100AC00082910ED0EB30E0F71EF068948A2D0CD0A6
:100AD00088278D93EF90DF90CF90DF91CF9108958D
:100AE000982F829501D0892F8F70805D26F08033FA
:100AF00009F4089568948D93089588278D93089537
:100B000081918D938823E1F7089581918D930A95C2
:100B100019F08823D1F70895F0CFE199FECFEEBB0D
:100B2000FFBB3196089591E001C092E07B3751F40C
:100B30007FB7F894F2DF8D918DBBE29AE19A9A9596
:100B4000C9F77FBF77270895E8DF8D917B3729F4B8
:100B50008DBBE29AE19A8823B9F77727089591E04F
:100B600001C092E0DADFE09A8DB38D939A95D1F7C8
:100B70000895D3DFE09A8DB38D93882319F09A9569
:100B8000C1F79D9308958FEF83959D919923E1F788
:100B90000895689401C0E894AF93BF938D9116F0C7
:100BA000919102C03FDF902D891718F011F488232E
:100BB000A9F7BF91AF91089553617665204944200C
:100BC0006973203A0000522050574D3D20002020EC
:100BD00020466C61673D00003030303030303131BC
:100BE00000003030303031313030000030303030C3
:100BF00031313131000030303131303030300000AF
:100C0000303031313030313100003030313131313C
:100C1000303000003030313131313131000031318C
:100C20003030303030300000313130303030313120
:100C3000000031313030313130300000313130306E
:100C4000313131310000313131313030303000005C
:100C50005361766520446174610030003100536156
:100C60007665640049443D002020446174613D0084
:00000001FF
