:1000000012C0189518951895189518951895189563
:100010001895189518951895189518951895189578
:100020001895189518958FE58DBFC0E4E8E34E2E1E
:1000300084E08EBFD4E0F4E05F2EEEEFF3E0A0E6C4
:10004000B0E0A89584B7082E877F84BF88E1992700
:1000500081BD91BD88278D933197E9F76624BD9ABC
:10006000C59A789484B7877F84BF8FE181BD87E08C
:1000700081BD81B5886181BD877F81BD86E886B9F4
:1000800080E487B9379AB99ABA9A81EA8FBD82E03B
:100090008EBD89B7846089BF789482E08EBDBB9A9B
:1000A00082E685BD89B7806489BF82E685BD80E030
:1000B00090E09BBD8ABD80E090E099BD88BD80E066
:1000C00083BD8F988C988A9A899A8B988B9881E0B7
:1000D00083BF89B7816089BF882783BF0027A0E3DA
:1000E000B0E08C9184FB0EF401E041E0041709F0CC
:1000F0005EC0919A929AE0E0F0E003E310E0A0E1A4
:10010000BB277BE727D584E690E084D4E2E0F0E0EB
:1001100003E310E0A0E1BB277BE71CD584E690E079
:1001200079D4E4E0F0E003E310E0A0E1BB277BE753
:1001300011D584E690E06ED4E6E0F0E0A0E1BB27C4
:1001400081E08C937BE704D584E690E063D4E7E01C
:10015000F0E0A0E1BB2781E08C937BE7F9D484E653
:1001600090E058D4E8E0F0E0A0E1BB2781E08C9378
:100170007BE7EED484E690E04DD4929AA89584E68D
:1001800090E048D482B392E0892782BB82B394E0A6
:10019000892782BB0027A0E3B0E08C9184FB0EF49A
:1001A00001E040E0041709F0E9CF91989298E0E06F
:1001B000F0E0ABE0B1E0EAD4E2E0F0E0ADE0B1E0E5
:1001C000E5D4E4E0F0E0AFE0B1E0E0D4E6E0F0E078
:1001D000A1E1B1E0D9D4E7E0F0E0A2E1B1E0D4D40C
:1001E000E8E0F0E0A3E1B1E0CFD4E9E0F0E0A4E1A1
:1001F000B1E09EE1D3D484EF91E00CD4E2EEFBE0D9
:10020000F5D3A4E1B1E000D4F9D3E0EFFBE0EED305
:10021000A0E2B4E0EBE0F1E02CD4F4D3E8EFFBE0B3
:10022000E5D3A0E2B4E0E1E1F1E032D4EBD3E6D3F0
:10023000E0EFFBE0DBD3A0E2B4E0EDE0F1E019D4C5
:10024000E1D3E8EFFBE0D2D3A0E2B4E0E2E1F1E0F9
:100250001FD4D8D3D3D3E0EFFBE0C8D3A0E2B4E0FF
:10026000EFE0F1E006D4CED3E8EFFBE0BFD3A0E2AD
:10027000B4E0E3E1F1E00CD4C5D3C0D300911101A7
:10028000013009F006C0ABE0B1E08D919C919BBDBF
:100290008ABD00911201013009F006C0ADE0B1E065
:1002A0008D919C9199BD88BD00911301013009F099
:1002B00004C0AFE0B1E08C9183BD929A9198CAD10D
:1002C000A89500916400013009F049C1ACEEB0E09E
:1002D000E2E0FCE073D409F003C081E080931101F7
:1002E000ACEEB0E0ECE0FCE069D409F003C080E0E3
:1002F00080931101ACEEB0E0E6E1FCE05FD481E078
:1003000009F080E08F93ABE0B1E00D911C910C3CC3
:1003100050E0150781E010F009F080E09F918923FB
:10032000882309F40CC0ABE0B1E00D911C9143E3CC
:1003300050E0040F151FABE0B1E00D931C93ACEE41
:10034000B0E0E0E2FCE03AD481E009F080E08F9395
:10035000ABE0B1E00D911C91063650E0150781E04D
:1003600008F480E09F918923882309F40CC0ABE056
:10037000B1E00D911C9143E350E0041B150BABE081
:10038000B1E00D931C93ACEEB0E0EAE2FCE016D4D1
:1003900009F003C081E080931201ACEEB0E0E4E329
:1003A000FCE00CD409F003C080E080931201ACEEB5
:1003B000B0E0EEE3FCE002D481E009F080E08F934E
:1003C000ADE0B1E00D911C910C3C50E0150781E0CF
:1003D00010F009F080E09F918923882309F40CC074
:1003E000ADE0B1E00D911C9143E350E0040F151F07
:1003F000ADE0B1E00D931C93ACEEB0E0E8E4FCE0BE
:10040000DDD381E009F080E08F93ADE0B1E00D91A4
:100410001C91063650E0150781E008F480E09F91BA
:100420008923882309F40CC0ADE0B1E00D911C9143
:1004300043E350E0041B150BADE0B1E00D931C93BA
:10044000ACEEB0E0E2E5FCE0B9D309F003C081E036
:1004500080931301ACEEB0E0ECE5FCE0AFD309F023
:1004600003C080E080931301ACEEB0E0E6E6FCE070
:10047000A5D381E009F080E08F93AFE0B1E00D916A
:100480001C910C3C50E0150781E010F009F080E071
:100490009F918923882309F40CC0AFE0B1E00D914E
:1004A0001C9143E350E0040F151FAFE0B1E00D9342
:1004B0001C93ACEEB0E0E0E7FCE080D381E009F013
:1004C00080E08F93AFE0B1E00D911C91063650E0D3
:1004D000150781E008F480E09F918923882309F4BF
:1004E0000CC0AFE0B1E00D911C9143E350E0041B60
:1004F000150BAFE0B1E00D931C9300911101013099
:1005000009F007C0ABE0B1E08D919C919BBD8ABD25
:1005100004C080E090E09BBD8ABD009112010130D3
:1005200009F007C0ADE0B1E08D919C9199BD88BD07
:1005300004C080E090E099BD88BD009113010130B6
:1005400009F005C0AFE0B1E08C9183BD02C080E04E
:1005500083BD80E0809364008CE291E05BD207B1C0
:10056000007F016007B96AD2A5E6B0E08D939C9345
:10057000A5E6B0E00D911C91023C51E0150708F092
:1005800068C0929880E090E09BBD8ABD80E083BD0A
:1005900080E090E099BD88BDE0E0F0E0ABE0B1E044
:1005A0007BE7D8D28AE090E035D2E2E0F0E0ADE03F
:1005B000B1E07BE7CFD28AE090E02CD2E4E0F0E03B
:1005C000AFE0B1E07BE7C6D28AE090E023D2E6E07C
:1005D000F0E0A1E1B1E07BE7BBD28AE090E01AD283
:1005E000E7E0F0E0A2E1B1E07BE7B2D28AE090E0A0
:1005F00011D2E8E0F0E0A3E1B1E07BE7A9D28AE024
:1006000090E008D2EAE7FCE0F1D1F8D1929A919813
:10061000A89584E690E0FED107B1007F016007B99C
:100620000DD2A5E6B0E08D939C9382B392E089272A
:1006300082BB82B394E0892782BBA5E6B0E00D912E
:100640001C91043F51E0150710F009F001C0E0CF04
:10065000919835CEACEEB0E088278C93ADECB0E04D
:1006600088278C930027A0E3B0E08C9187FB0EF4E1
:1006700001E041E0041709F088C10027A0E3B0E0E1
:100680008C9187FB0EF401E040E0041709F0F5CFF0
:1006900080E090E0A7E6B0E08D939C93A7E6B0E001
:1006A00075D1EF93FF93EAE0F0E07ED1FF91EF91F7
:1006B0000027A0E3B0E08C9187FB0EF401E041E05D
:1006C000041709F0EBCFA7E6B0E00D911C910E30B6
:1006D00056E0150780E010F009F081E08F93A7E65F
:1006E000B0E00D911C91043358E0150781E008F04B
:1006F00080E09F918923882309F446C1919AADEC4B
:10070000B0E088278C9381E090E0A0E6B0E08D9384
:100710009C930027A0E3B0E08C9187FB0EF401E0EE
:1007200041E0041709F02EC080E090E0A7E6B0E0B9
:100730008D939C93A7E6B0E029D1EF93FF93EAE075
:10074000F0E032D1FF91EF910027A0E3B0E08C916F
:1007500087FB0EF401E040E0041709F0EBCFA7E6B9
:10076000B0E08D919C91A0E6B0E0AD90BC90A7E682
:10077000B0E0AA0CBB1CAA0DBB1D8D939C93A0E6F8
:10078000B0E004D1A895A0E6B0E00D911C9108312D
:1007900050E0150710F009F001C0BBCF81E090E0F8
:1007A000A0E6B0E08D939C93A0E6B0E00D911C9183
:1007B000083150E0150710F009F08EC0A0E6B0E057
:1007C000AD90BC90A7E6B0E0AA0CBB1CAA0DBB1D67
:1007D0000D911C910D3250E0150780E010F009F0EA
:1007E00081E08F93A0E6B0E0AD90BC90A7E6B0E0CA
:1007F000AA0CBB1CAA0DBB1D0D911C910F3550E01E
:10080000150781E008F080E09F918923882309F48F
:1008100015C080E090E0A0E6B0E0AD90BC90A7E607
:10082000B0E0AA0CBB1CAA0DBB1D8D939C93ADEC34
:10083000B0E0B3D0E4E8FCE0FCD049C0A0E6B0E012
:10084000AD90BC90A7E6B0E0AA0CBB1CAA0DBB1DE6
:100850000D911C910C3850E0150780E010F009F064
:1008600081E08F93A0E6B0E0AD90BC90A7E6B0E049
:10087000AA0CBB1CAA0DBB1D0D911C910C3D50E098
:10088000150781E008F080E09F918923882309F40F
:1008900015C081E090E0A0E6B0E0AD90BC90A7E686
:1008A000B0E0AA0CBB1CAA0DBB1D8D939C93ADECB4
:1008B000B0E073D0E6E8FCE0BCD009C0ADECB0E03D
:1008C00088278C93ACEEB0E088278C930895A0E63F
:1008D000B0E05CD008F468CFADECB0E069D1EA2FAD
:1008E000FB2F3997F0400FEFACEEB0E023D1EDECE9
:1008F000F0E000E1ADECB0E01DD10027A0E3B0E0F6
:100900008C9184FB0EF401E041E0041709F032C041
:10091000EDECF0E0A4E1B1E008D1E9E0F0E0ADEC0D
:10092000B0E07BE726D18AE090E074D0E8E8FCE014
:100930005DD064D0EEE8FCE059D0ADECB0E064D01E
:10094000E2E9FCE053D0ACEEB0E05ED057D0919A33
:1009500084E690E05FD0A8958AE090E05BD0002725
:10096000A0E3B0E08C9184FB0EF401E040E00417BA
:1009700009F0F1CFEDECF0E0A4E1B1E021D109F014
:1009800003C081E08093640091980895ED91FC91FB
:10099000EF5FFF4FFC93EE9308958F938D91882323
:1009A000E9F711978F9108953197F1F708956894B9
:1009B00062F80895E89462F808958F939F938BE806
:1009C00090E00197F1F79F918F91089580952AE02B
:1009D00090E0089410F4C59802C0C59A0000EDDFBD
:1009E000ECDF969587952A95A9F70895C895802DEF
:1009F000882319F0EBDF3196F9CF08958DE0E6DF1B
:100A00008AE0E4CFA0E2B4E08D91882311F0DEDF2C
:100A1000FBCF0895EF93FF93EE27E82BE92B31F0FE
:100A2000EDECFAE03197F1F70197D1F7FF91EF91F3
:100A300008950DD00D920020E1F70895369A369969
:100A4000FECF369A3699FECF84B195B10895C895F8
:100A5000319600200895000F111F221F331F0895A3
:100A600000951095209530950F5F1F4F2F4F3F4FEA
:100A70000895019110810EC0019111912191308151
:100A80000BC00191108117FF05C03FEF2FEF04C08D
:100A9000008111272227332737FF03C0E1DF8DE2D2
:100AA0008D93CF93DF93CF92DF92EF92AA24BB2452
:100AB000CC24DD24EE2440E2CAE0DD2755E093E3B8
:100AC0008881890F87FD9F7083FD907F891B8993A3
:100AD0005A95A9F7C0DFAA1CBB1CCC1CDD1CEE1C60
:100AE0004A9551F7E894EFE0FF2782910ED0EB3062
:100AF000E0F71EF068948A2D0CD088278D93EF9034
:100B0000DF90CF90DF91CF910895982F829501D0FB
:100B1000892F8F70805D26F0803309F408956894E2
:100B20008D93089588278D93089581918D938823BF
:100B3000E1F7089581918D930A9519F08823D1F7F3
:100B40000895F0CFE199FECFEEBBFFBB319608953B
:100B500091E001C092E07B3751F47FB7F894F2DF67
:100B60008D918DBBE29AE19A9A95C9F77FBF77275D
:100B70000895E8DF8D917B3729F48DBBE29AE19AE5
:100B80008823B9F77727089591E001C092E0DADF72
:100B9000E09A8DB38D939A95D1F70895D3DFE09ABB
:100BA0008DB38D93882319F09A95C1F79D9308957D
:100BB0008FEF83959D919923E1F70895689401C083
:100BC000E894AF93BF938D9116F0919102C03FDFEF
:100BD000902D891718F011F48823A9F7BF91AF91D0
:100BE000089553617665204944206973203A0000D6
:100BF000522050574D3D2000202020466C61673D1B
:100C000000003030303030303131000030303030A2
:100C1000313130300000303030303131313100008E
:100C20003030313130303030000030303131303020
:100C3000313100003030313131313030000030306E
:100C400031313131313100003131303030303030FC
:100C5000000031313030303031310000313130304E
:100C6000313130300000313130303131313100003C
:100C700031313131303030300000536176652044FD
:100C8000617461003000310053617665640049444D
:0A0C90003D002020446174613D0026
:00000001FF
