:1000000012C0189518951895189518951895189563
:100010001895189518951895189518951895189578
:100020001895189518958FE58DBFC0E4E8E34E2E1E
:1000300084E08EBFD4E0F4E05F2EEEEFF3E0A0E6C4
:10004000B0E0A89584B7082E877F84BF88E1992700
:1000500081BD91BD88278D933197E9F76624BD9ABC
:10006000C59A789484B7877F84BF8FE181BD87E08C
:1000700081BD81B5886181BD877F81BDA198A4982C
:10008000A39A81E083BF89B7816089BF882783BF36
:1000900002D0A895FDCF0027A3E3B0E08C9181FBAF
:1000A0000EF401E041E0041709F06EC1A8950027A5
:1000B000A3E3B0E08C9181FB0EF401E040E0041773
:1000C00009F0F4CF80E090E0A4E8B3E08D939C9336
:1000D000A895A4E8B3E059D1EF93FF93E6E0F0E0F0
:1000E0005BD1FF91EF910027A3E3B0E08C9181FBFE
:1000F0000EF401E041E0041709F0EACFA4E8B3E010
:100100000D911C910E3056E0150780E010F009F0BB
:1001100081E08F93A4E8B3E00D911C910E3957E074
:10012000150781E008F080E09F918923882309F476
:100130002BC181E090E0A2E8B3E08D939C9300276F
:10014000A3E3B0E08C9181FB0EF401E041E00417E1
:1001500009F02FC080E090E0A4E8B3E08D939C9379
:10016000A895A4E8B3E011D1EF93FF93E6E0F0E0A7
:1001700013D1FF91EF910027A3E3B0E08C9181FBB5
:100180000EF401E040E0041709F0EACFA4E8B3E080
:100190008D919C91A2E8B3E0AD90BC90A4E8B3E04F
:1001A000AA0CBB1CAA0DBB1D8D939C93A2E8B3E0C7
:1001B000ECD0A2E8B3E00D911C91083150E0150796
:1001C00010F009F001C0BBCF81E090E0A2E8B3E0FD
:1001D0008D939C93A2E8B3E00D911C91083150E0FF
:1001E000150710F009F0A6C0A2E8B3E0AD90BC90EE
:1001F000A4E8B3E0AA0CBB1CAA0DBB1D0D911C9179
:100200000E3150E0150780E010F009F081E08F9387
:10021000A2E8B3E0AD90BC90A4E8B3E0AA0CBB1C8C
:10022000AA0DBB1D0D911C91053550E0150781E00D
:1002300008F080E09F918923882309F40FC080E0B3
:1002400090E0A2E8B3E0AD90BC90A4E8B3E0AA0CC3
:10025000BB1CAA0DBB1D8D939C9367C0A2E8B3E0A5
:10026000AD90BC90A4E8B3E0AA0CBB1CAA0DBB1DCA
:100270000D911C91023850E0150780E010F009F054
:1002800081E08F93A2E8B3E0AD90BC90A4E8B3E026
:10029000AA0CBB1CAA0DBB1D0D911C91083C50E083
:1002A000150781E008F080E09F918923882309F4F5
:1002B0000FC081E090E0A2E8B3E0AD90BC90A4E86C
:1002C000B3E0AA0CBB1CAA0DBB1D8D939C932DC043
:1002D000A0E2B4E0E2E8F3E0B2D08CD0E0EFF4E0EA
:1002E0007DD0A0E2B4E0E2E8F3E0A190B080E4E8E1
:1002F000F3E0AA0CBB1CEA0DFB1DA1D07BD076D08D
:1003000000E010E020E030E0AFEFB3E00D931D938C
:100310002D933C9300E010E020E030E0AAE0B4E050
:100320000D931D932D933C930895A2E8B3E02DD037
:1003300008F450CFE2EFF4E051D081E090E0A2E881
:10034000B3E08D939C93A2E8B3E00D911C9108312A
:1003500050E0150710F009F013C0A0E2B4E0E2E8A5
:10036000F3E0A190B080E4E8F3E0AA0CBB1CEA0D36
:10037000FB1D65D03FD0A2E8B3E007D008F4E3CF7F
:1003800035D088EC90E03ED00895ED91FC91EF5F80
:10039000FF4FFC93EE9308953197F1F70895689419
:1003A00062F80895E89462F808958F939F9383E626
:1003B00090E00197F1F79F918F91089580952AE041
:1003C00090E0089410F4C59802C0C59A0000EDDFD3
:1003D000ECDF969587952A95A9F70895C895802D05
:1003E000882319F0EBDF3196F9CF08958DE0E6DF31
:1003F0008AE0E4CFA0E2B4E08D91882311F0DEDF43
:10040000FBCF0895EF93FF93EE27E82BE92B31F014
:10041000E0EDF7E03197F1F70197D1F7FF91EF9118
:100420000895000F111F221F331F08950095109586
:10043000209530950F5F1F4F2F4F3F4F089501912B
:1004400010810EC001911191219130810BC0019159
:10045000108117FF05C03FEF2FEF04C00081112767
:100460002227332737FF03C0E1DF8DE28D93CF933F
:10047000DF93CF92DF92EF92AA24BB24CC24DD2419
:10048000EE2440E2CAE0DD2755E093E38881890F3E
:1004900087FD9F7083FD907F891B89935A95A9F7EB
:1004A000C0DFAA1CBB1CCC1CDD1CEE1C4A9551F7FE
:1004B000E894EFE0FF2782910ED0EB30E0F71EF0DA
:1004C00068948A2D0CD088278D93EF90DF90CF9081
:1004D000DF91CF910895982F829501D0892F8F7049
:1004E000805D26F0803309F4089568948D93089513
:1004F000290052656D6F74652064617461206973B1
:04050000203D20007A
:00000001FF
