:1000000012C0189518951895189518951895189563
:100010001895189518951895189518951895189578
:100020001895189518958FE58DBFC0E4E8E34E2E1E
:1000300084E08EBFD4E0F4E05F2EEEEFF3E0A0E6C4
:10004000B0E0A89584B7082E877F84BF88E1992700
:1000500081BD91BD88278D933197E9F76624BD9ABC
:10006000C59A789484B7877F84BF8FE181BD87E08C
:1000700081BD81B5886181BD877F81BD86E886B9F4
:1000800080E487B9379AB99ABA9A81EA8FBD82E03B
:100090008EBD89B7846089BF789482E08EBDBB9A9B
:1000A00082E685BD89B7806489BF82E685BD80E030
:1000B00090E09BBD8ABD80E090E099BD88BD80E066
:1000C00083BD8F988C988A9A899A8B98E0E0F0E0AB
:1000D000ADE0B1E09EE13ED3EAE9F7E0CAD2ADE09F
:1000E000B1E0D5D2CED2E1E2F0E0A6E6B0E028D38E
:1000F000EFE1F0E0A4E6B0E025D300916600013026
:1001000009F006C0A4E6B0E08D919C919BBD8ABD2C
:10011000929A40D0A89507B1007F016007B9D1D26B
:10012000A7E6B0E08D939C93A7E6B0E00D911C91FB
:10013000023C51E0150708F02CC09298E1E2F0E093
:10014000A6E6B0E07BE7E0D2EFE1F0E0A4E6B0E0C5
:100150007BE7DCD2E8EAF7E08CD293D284EF91E03F
:100160009CD2A8958AE090E098D207B1007F016008
:1001700007B9A7D2A7E6B0E08D939C93A7E6B0E0BD
:100180000D911C91043F51E0150710F009F001C0DA
:10019000E8CFBFCFAEEEB0E088278C93AFECB0E0F5
:1001A00088278C930027A0E3B0E08C9187FB0EF4A6
:1001B00001E041E0041709F02BC20027A0E3B0E002
:1001C0008C9187FB0EF401E040E0041709F0F5CFB5
:1001D00080E090E0A9E6B0E08D939C93A9E6B0E0C2
:1001E00018D2EF93FF93EAE0F0E021D2FF91EF9174
:1001F0000027A0E3B0E08C9187FB0EF401E041E022
:10020000041709F0EBCFA9E6B0E00D911C910E3078
:1002100056E0150780E010F009F081E08F93A9E621
:10022000B0E00D911C91043358E0150781E008F00F
:1002300080E09F918923882309F4E9C1919AAFEC6A
:10024000B0E088278C9381E090E0A0E6B0E08D9349
:100250009C930027A0E3B0E08C9187FB0EF401E0B3
:1002600041E0041709F02EC080E090E0A9E6B0E07C
:100270008D939C93A9E6B0E0CCD1EF93FF93EAE095
:10028000F0E0D5D1FF91EF910027A0E3B0E08C9191
:1002900087FB0EF401E040E0041709F0EBCFA9E67C
:1002A000B0E08D919C91A0E6B0E0AD90BC90A9E645
:1002B000B0E0AA0CBB1CAA0DBB1D8D939C93A0E6BD
:1002C000B0E0A7D1A895A0E6B0E00D911C9108314F
:1002D00050E0150710F009F001C0BBCF81E090E0BD
:1002E000A0E6B0E08D939C93A0E6B0E00D911C9148
:1002F000083150E0150710F009F08EC0A0E6B0E01C
:10030000AD90BC90A9E6B0E0AA0CBB1CAA0DBB1D29
:100310000D911C910D3250E0150780E010F009F0AE
:1003200081E08F93A0E6B0E0AD90BC90A9E6B0E08C
:10033000AA0CBB1CAA0DBB1D0D911C910F3550E0E2
:10034000150781E008F080E09F918923882309F454
:1003500015C080E090E0A0E6B0E0AD90BC90A9E6CA
:10036000B0E0AA0CBB1CAA0DBB1D8D939C93AFECF7
:10037000B0E056D1E2EBF7E09FD149C0A0E6B0E093
:10038000AD90BC90A9E6B0E0AA0CBB1CAA0DBB1DA9
:100390000D911C910C3850E0150780E010F009F029
:1003A00081E08F93A0E6B0E0AD90BC90A9E6B0E00C
:1003B000AA0CBB1CAA0DBB1D0D911C910C3D50E05D
:1003C000150781E008F080E09F918923882309F4D4
:1003D00015C081E090E0A0E6B0E0AD90BC90A9E649
:1003E000B0E0AA0CBB1CAA0DBB1D8D939C93AFEC77
:1003F000B0E016D1E4EBF7E05FD109C0AFECB0E0BC
:1004000088278C93AEEEB0E088278C930895A0E601
:10041000B0E0FFD008F468CFAFECB0E0A5D1EA2F90
:10042000FB2F3997F0400FEFAEEEB0E05FD1EFEC6D
:10043000F0E008E0AFECB0E059D10027A0E3B0E075
:100440008C9184FB0EF401E041E0041709F032C006
:10045000EFECF0E0ADE0B1E044D1E0E0F0E0AFEC93
:10046000B0E07BE762D18AE090E017D1E6EBF7E0FD
:1004700000D107D1ECEBF7E0FCD0AFECB0E007D156
:10048000E0ECF7E0F6D0AEEEB0E001D1FAD0919A10
:1004900084E690E002D1A8958AE090E0FED00027A3
:1004A000A0E3B0E08C9184FB0EF401E040E004177F
:1004B00009F0F1CFEFECF0E0ADE0B1E05DD109F093
:1004C000A6C0AEEEB0E0E8ECF7E054D109F003C00E
:1004D00081E080936600AEEEB0E0E2EDF7E04AD155
:1004E00009F003C080E080936600AEEEB0E0ECED72
:1004F000F7E040D109F006C089E190E0A4E6B0E061
:100500008D939C93AEEEB0E0E6EEF7E033D109F0C8
:1005100006C083E390E0A4E6B0E08D939C93AEEE3A
:10052000B0E0E0EFF7E026D109F006C08CE490E0FF
:10053000A4E6B0E08D939C93AEEEB0E0EAEFF7E076
:1005400019D109F006C086E690E0A4E6B0E08D93EC
:100550009C93AEEEB0E0E4E0F8E00CD109F006C008
:100560008FE790E0A4E6B0E08D939C93AEEEB0E010
:10057000EEE0F8E0FFD009F006C089E990E0A4E6DB
:10058000B0E08D939C93AEEEB0E0E8E1F8E0F2D0FD
:1005900009F006C082EB90E0A4E6B0E08D939C9356
:1005A000AEEEB0E0E2E2F8E0E5D009F006C08CEC97
:1005B00090E0A4E6B0E08D939C93AEEEB0E0ECE268
:1005C000F8E0D8D009F006C085EE90E0A4E6B0E0EF
:1005D0008D939C93AEEEB0E0E6E3F8E0CBD009F06B
:1005E00006C08FEF90E0A4E6B0E08D939C9300915D
:1005F0006600013009F007C0A4E6B0E08D919C913F
:100600009BBD8ABD04C080E090E09BBD8ABD9198EF
:100610000895ED91FC91EF5FFF4FFC93EE930895E9
:100620008F938D918823E9F711978F9108953197D2
:10063000F1F70895689462F80895E89462F80895CF
:100640008F939F938BE890E00197F1F79F918F91A3
:10065000089580952AE090E0089410F4C59802C0AF
:10066000C59A0000EDDFECDF969587952A95A9F7EE
:100670000895C895802D882319F0EBDF3196F9CFC6
:1006800008958DE0E6DF8AE0E4CFA0E2B4E08D914A
:10069000882311F0DEDFFBCF0895EF93FF93EE2761
:1006A000E82BE92B31F0EDECFAE03197F1F7019707
:1006B000D1F7FF91EF9108950DD00D920020E1F751
:1006C0000895369A3699FECF369A3699FECF84B180
:1006D00095B10895C89531960020089588278D9387
:1006E000089581918D938823E1F7089581918D93E9
:1006F0000A9519F08823D1F70895F0CFE199FECF3C
:10070000EEBBFFBB3196089591E001C092E07B37CC
:1007100051F47FB7F894F2DF8D918DBBE29AE19AA4
:100720009A95C9F77FBF77270895E8DF8D917B37CA
:1007300029F48DBBE29AE19A8823B9F777270895C7
:1007400091E001C092E0DADFE09A8DB38D939A9543
:10075000D1F70895D3DFE09A8DB38D93882319F0F4
:100760009A95C1F79D9308958FEF83959D91992355
:10077000E1F70895689401C0E894AF93BF938D9119
:1007800016F0919102C0A6DF902D891718F011F490
:100790008823A9F7BF91AF910895536176652049E9
:1007A00044206973203A00005361766520446174E7
:1007B00061003000310053617665640049443D00BA
:1007C0002020446174613D003030303030303131B0
:1007D00000003030303031313030000030303030D7
:1007E00031313131000030303131303030300000C3
:1007F0003030313130303131000030303131313151
:1008000030300000303031313131313100003131A0
:100810003030303030300000313130303030313134
:100820000000313130303131303000003131303082
:100830003131313100003131313130303030000070
:00000001FF
